{
  "contractName": "TheMuseum",
  "abi": [
    {
      "constant": true,
      "inputs": [
        {
          "name": "",
          "type": "uint256"
        }
      ],
      "name": "adoptionPaintings",
      "outputs": [
        {
          "name": "name",
          "type": "string"
        },
        {
          "name": "paintingID",
          "type": "uint256"
        },
        {
          "name": "weiValue",
          "type": "uint128"
        },
        {
          "name": "pType",
          "type": "uint8"
        }
      ],
      "payable": false,
      "stateMutability": "view",
      "type": "function"
    },
    {
      "constant": false,
      "inputs": [
        {
          "name": "",
          "type": "address"
        },
        {
          "name": "",
          "type": "address"
        },
        {
          "name": "",
          "type": "uint256"
        },
        {
          "name": "",
          "type": "bytes"
        }
      ],
      "name": "onERC721Received",
      "outputs": [
        {
          "name": "",
          "type": "bytes4"
        }
      ],
      "payable": false,
      "stateMutability": "nonpayable",
      "type": "function"
    },
    {
      "constant": true,
      "inputs": [],
      "name": "admin",
      "outputs": [
        {
          "name": "",
          "type": "address"
        }
      ],
      "payable": false,
      "stateMutability": "view",
      "type": "function"
    },
    {
      "constant": true,
      "inputs": [
        {
          "name": "",
          "type": "uint256"
        }
      ],
      "name": "auctionPaintings",
      "outputs": [
        {
          "name": "name",
          "type": "string"
        },
        {
          "name": "paintingID",
          "type": "uint256"
        },
        {
          "name": "weiValue",
          "type": "uint128"
        },
        {
          "name": "pType",
          "type": "uint8"
        }
      ],
      "payable": false,
      "stateMutability": "view",
      "type": "function"
    },
    {
      "inputs": [
        {
          "name": "deMuseAddress",
          "type": "address"
        },
        {
          "name": "mgrAddress",
          "type": "address"
        }
      ],
      "payable": false,
      "stateMutability": "nonpayable",
      "type": "constructor"
    },
    {
      "anonymous": false,
      "inputs": [
        {
          "indexed": true,
          "name": "owner",
          "type": "address"
        },
        {
          "indexed": false,
          "name": "paintingID",
          "type": "uint256"
        }
      ],
      "name": "AdoptionPaintingAdded",
      "type": "event"
    },
    {
      "anonymous": false,
      "inputs": [
        {
          "indexed": true,
          "name": "owner",
          "type": "address"
        },
        {
          "indexed": false,
          "name": "paintingID",
          "type": "uint256"
        }
      ],
      "name": "AuctionPaintingAdded",
      "type": "event"
    },
    {
      "constant": false,
      "inputs": [
        {
          "name": "_name",
          "type": "string"
        },
        {
          "name": "pID",
          "type": "uint256"
        },
        {
          "name": "value",
          "type": "uint128"
        }
      ],
      "name": "newPaintingForAdoption",
      "outputs": [],
      "payable": false,
      "stateMutability": "nonpayable",
      "type": "function"
    },
    {
      "constant": false,
      "inputs": [
        {
          "name": "_name",
          "type": "string"
        },
        {
          "name": "pID",
          "type": "uint256"
        },
        {
          "name": "value",
          "type": "uint128"
        }
      ],
      "name": "newPaintingForAuction",
      "outputs": [],
      "payable": false,
      "stateMutability": "nonpayable",
      "type": "function"
    },
    {
      "constant": true,
      "inputs": [],
      "name": "numberOfAdoptionPaintings",
      "outputs": [
        {
          "name": "",
          "type": "uint256"
        }
      ],
      "payable": false,
      "stateMutability": "view",
      "type": "function"
    },
    {
      "constant": true,
      "inputs": [],
      "name": "numberOfAuctionPaintings",
      "outputs": [
        {
          "name": "",
          "type": "uint256"
        }
      ],
      "payable": false,
      "stateMutability": "view",
      "type": "function"
    },
    {
      "constant": true,
      "inputs": [
        {
          "name": "paintingId",
          "type": "uint256"
        }
      ],
      "name": "getAdoptedBy",
      "outputs": [
        {
          "name": "",
          "type": "string"
        }
      ],
      "payable": false,
      "stateMutability": "view",
      "type": "function"
    },
    {
      "constant": true,
      "inputs": [],
      "name": "tokenName",
      "outputs": [
        {
          "name": "",
          "type": "string"
        }
      ],
      "payable": false,
      "stateMutability": "view",
      "type": "function"
    },
    {
      "constant": true,
      "inputs": [],
      "name": "tokenSymbol",
      "outputs": [
        {
          "name": "",
          "type": "string"
        }
      ],
      "payable": false,
      "stateMutability": "view",
      "type": "function"
    },
    {
      "constant": false,
      "inputs": [
        {
          "name": "paintingId",
          "type": "uint256"
        }
      ],
      "name": "adoptionApproval",
      "outputs": [],
      "payable": true,
      "stateMutability": "payable",
      "type": "function"
    },
    {
      "constant": true,
      "inputs": [
        {
          "name": "paintingId",
          "type": "uint256"
        }
      ],
      "name": "getAdoptionValue",
      "outputs": [
        {
          "name": "",
          "type": "uint256"
        }
      ],
      "payable": false,
      "stateMutability": "view",
      "type": "function"
    },
    {
      "constant": false,
      "inputs": [
        {
          "name": "paintingId",
          "type": "uint256"
        }
      ],
      "name": "reverseAdoption",
      "outputs": [],
      "payable": false,
      "stateMutability": "nonpayable",
      "type": "function"
    }
  ],
  "bytecode": "0x608060405234801561001057600080fd5b5060405161234b38038061234b8339818101604052604081101561003357600080fd5b81019080805190602001909291908051906020019092919050505080600160006101000a81548173ffffffffffffffffffffffffffffffffffffffff021916908373ffffffffffffffffffffffffffffffffffffffff160217905550336000806101000a81548173ffffffffffffffffffffffffffffffffffffffff021916908373ffffffffffffffffffffffffffffffffffffffff16021790555081600260006101000a81548173ffffffffffffffffffffffffffffffffffffffff021916908373ffffffffffffffffffffffffffffffffffffffff160217905550505061222a806101216000396000f3fe6080604052600436106100dc5760003560e01c80637b61c3201161007f578063e487e60311610059578063e487e60314610784578063f678ea35146107af578063f851a440146107fe578063fea1843f14610855576100dc565b80637b61c320146106125780638343e522146106a2578063b09d038714610756576100dc565b80632bbfb527116100bb5780632bbfb5271461042e578063604563af146104695780636c02a93114610557578063712e9fe2146105e7576100dc565b80625305c3146100e157806301427b4d146101cf578063150b7a02146102ca575b600080fd5b3480156100ed57600080fd5b506101cd6004803603606081101561010457600080fd5b810190808035906020019064010000000081111561012157600080fd5b82018360208201111561013357600080fd5b8035906020019184600183028401116401000000008311171561015557600080fd5b91908080601f016020809104026020016040519081016040528093929190818152602001838380828437600081840152601f19601f8201169050808301925050505050505091929192908035906020019092919080356fffffffffffffffffffffffffffffffff169060200190929190505050610950565b005b3480156101db57600080fd5b50610208600480360360208110156101f257600080fd5b8101908080359060200190929190505050610a07565b6040518080602001858152602001846fffffffffffffffffffffffffffffffff166fffffffffffffffffffffffffffffffff16815260200183600181111561024c57fe5b60ff168152602001828103825286818151815260200191508051906020019080838360005b8381101561028c578082015181840152602081019050610271565b50505050905090810190601f1680156102b95780820380516001836020036101000a031916815260200191505b509550505050505060405180910390f35b3480156102d657600080fd5b506103da600480360360808110156102ed57600080fd5b81019080803573ffffffffffffffffffffffffffffffffffffffff169060200190929190803573ffffffffffffffffffffffffffffffffffffffff169060200190929190803590602001909291908035906020019064010000000081111561035457600080fd5b82018360208201111561036657600080fd5b8035906020019184600183028401116401000000008311171561038857600080fd5b91908080601f016020809104026020016040519081016040528093929190818152602001838380828437600081840152601f19601f820116905080830192505050505050509192919290505050610b05565b60405180827bffffffffffffffffffffffffffffffffffffffffffffffffffffffff19167bffffffffffffffffffffffffffffffffffffffffffffffffffffffff1916815260200191505060405180910390f35b34801561043a57600080fd5b506104676004803603602081101561045157600080fd5b8101908080359060200190929190505050610b19565b005b34801561047557600080fd5b506105556004803603606081101561048c57600080fd5b81019080803590602001906401000000008111156104a957600080fd5b8201836020820111156104bb57600080fd5b803590602001918460018302840111640100000000831117156104dd57600080fd5b91908080601f016020809104026020016040519081016040528093929190818152602001838380828437600081840152601f19601f8201169050808301925050505050505091929192908035906020019092919080356fffffffffffffffffffffffffffffffff169060200190929190505050610d69565b005b34801561056357600080fd5b5061056c610e20565b6040518080602001828103825283818151815260200191508051906020019080838360005b838110156105ac578082015181840152602081019050610591565b50505050905090810190601f1680156105d95780820380516001836020036101000a031916815260200191505b509250505060405180910390f35b3480156105f357600080fd5b506105fc610f20565b6040518082815260200191505060405180910390f35b34801561061e57600080fd5b50610627610f2d565b6040518080602001828103825283818151815260200191508051906020019080838360005b8381101561066757808201518184015260208101905061064c565b50505050905090810190601f1680156106945780820380516001836020036101000a031916815260200191505b509250505060405180910390f35b3480156106ae57600080fd5b506106db600480360360208110156106c557600080fd5b810190808035906020019092919050505061102d565b6040518080602001828103825283818151815260200191508051906020019080838360005b8381101561071b578082015181840152602081019050610700565b50505050905090810190601f1680156107485780820380516001836020036101000a031916815260200191505b509250505060405180910390f35b6107826004803603602081101561076c57600080fd5b8101908080359060200190929190505050611344565b005b34801561079057600080fd5b5061079961170e565b6040518082815260200191505060405180910390f35b3480156107bb57600080fd5b506107e8600480360360208110156107d257600080fd5b810190808035906020019092919050505061171b565b6040518082815260200191505060405180910390f35b34801561080a57600080fd5b50610813611887565b604051808273ffffffffffffffffffffffffffffffffffffffff1673ffffffffffffffffffffffffffffffffffffffff16815260200191505060405180910390f35b34801561086157600080fd5b5061088e6004803603602081101561087857600080fd5b81019080803590602001909291905050506118ac565b6040518080602001858152602001846fffffffffffffffffffffffffffffffff166fffffffffffffffffffffffffffffffff1681526020018360018111156108d257fe5b60ff168152602001828103825286818151815260200191508051906020019080838360005b838110156109125780820151818401526020810190506108f7565b50505050905090810190601f16801561093f5780820380516001836020036101000a031916815260200191505b509550505050505060405180910390f35b6000809054906101000a900473ffffffffffffffffffffffffffffffffffffffff1673ffffffffffffffffffffffffffffffffffffffff163373ffffffffffffffffffffffffffffffffffffffff16146109f5576040517f08c379a00000000000000000000000000000000000000000000000000000000081526004018080602001828103825260278152602001806121cf6027913960400191505060405180910390fd5b610a0283838360016119aa565b505050565b60038181548110610a1457fe5b9060005260206000209060030201600091509050806000018054600181600116156101000203166002900480601f016020809104026020016040519081016040528092919081815260200182805460018160011615610100020316600290048015610ac05780601f10610a9557610100808354040283529160200191610ac0565b820191906000526020600020905b815481529060010190602001808311610aa357829003601f168201915b5050505050908060010154908060020160009054906101000a90046fffffffffffffffffffffffffffffffff16908060020160109054906101000a900460ff16905084565b600063150b7a0260e01b9050949350505050565b6000809054906101000a900473ffffffffffffffffffffffffffffffffffffffff1673ffffffffffffffffffffffffffffffffffffffff163373ffffffffffffffffffffffffffffffffffffffff1614610bbe576040517f08c379a00000000000000000000000000000000000000000000000000000000081526004018080602001828103825260278152602001806121cf6027913960400191505060405180910390fd5b6000600260009054906101000a900473ffffffffffffffffffffffffffffffffffffffff1673ffffffffffffffffffffffffffffffffffffffff16636352211e836040518263ffffffff1660e01b81526004018082815260200191505060206040518083038186803b158015610c3357600080fd5b505afa158015610c47573d6000803e3d6000fd5b505050506040513d6020811015610c5d57600080fd5b81019080805190602001909291905050509050600260009054906101000a900473ffffffffffffffffffffffffffffffffffffffff1673ffffffffffffffffffffffffffffffffffffffff166342842e0e8230856040518463ffffffff1660e01b8152600401808473ffffffffffffffffffffffffffffffffffffffff1673ffffffffffffffffffffffffffffffffffffffff1681526020018373ffffffffffffffffffffffffffffffffffffffff1673ffffffffffffffffffffffffffffffffffffffff1681526020018281526020019350505050600060405180830381600087803b158015610d4d57600080fd5b505af1158015610d61573d6000803e3d6000fd5b505050505050565b6000809054906101000a900473ffffffffffffffffffffffffffffffffffffffff1673ffffffffffffffffffffffffffffffffffffffff163373ffffffffffffffffffffffffffffffffffffffff1614610e0e576040517f08c379a00000000000000000000000000000000000000000000000000000000081526004018080602001828103825260278152602001806121cf6027913960400191505060405180910390fd5b610e1b83838360006119aa565b505050565b6060600260009054906101000a900473ffffffffffffffffffffffffffffffffffffffff1673ffffffffffffffffffffffffffffffffffffffff166306fdde036040518163ffffffff1660e01b815260040160006040518083038186803b158015610e8a57600080fd5b505afa158015610e9e573d6000803e3d6000fd5b505050506040513d6000823e3d601f19601f820116820180604052506020811015610ec857600080fd5b810190808051640100000000811115610ee057600080fd5b82810190506020810184811115610ef657600080fd5b8151856001820283011164010000000082111715610f1357600080fd5b5050929190505050905090565b6000600480549050905090565b6060600260009054906101000a900473ffffffffffffffffffffffffffffffffffffffff1673ffffffffffffffffffffffffffffffffffffffff166395d89b416040518163ffffffff1660e01b815260040160006040518083038186803b158015610f9757600080fd5b505afa158015610fab573d6000803e3d6000fd5b505050506040513d6000823e3d601f19601f820116820180604052506020811015610fd557600080fd5b810190808051640100000000811115610fed57600080fd5b8281019050602081018481111561100357600080fd5b815185600182028301116401000000008211171561102057600080fd5b5050929190505050905090565b6060806040518060200160405280600081525090506000600260009054906101000a900473ffffffffffffffffffffffffffffffffffffffff1673ffffffffffffffffffffffffffffffffffffffff16636352211e856040518263ffffffff1660e01b81526004018082815260200191505060206040518083038186803b1580156110b757600080fd5b505afa1580156110cb573d6000803e3d6000fd5b505050506040513d60208110156110e157600080fd5b8101908080519060200190929190505050905060606000600160009054906101000a900473ffffffffffffffffffffffffffffffffffffffff1673ffffffffffffffffffffffffffffffffffffffff16636386c1c7846040518263ffffffff1660e01b8152600401808273ffffffffffffffffffffffffffffffffffffffff1673ffffffffffffffffffffffffffffffffffffffff16815260200191505060006040518083038186803b15801561119757600080fd5b505afa1580156111ab573d6000803e3d6000fd5b505050506040513d6000823e3d601f19601f8201168201806040525060408110156111d557600080fd5b8101908080516401000000008111156111ed57600080fd5b8281019050602081018481111561120357600080fd5b815185600182028301116401000000008211171561122057600080fd5b50509291906020018051906020019092919050505091509150836040516020018082805190602001908083835b60208310611270578051825260208201915060208101905060208303925061124d565b6001836020036101000a03801982511681845116808217855250505050505090500191505060405160208183030381529060405280519060200120826040516020018082805190602001908083835b602083106112e257805182526020820191506020810190506020830392506112bf565b6001836020036101000a0380198251168184511680821785525050505050509050019150506040516020818303038152906040528051906020012014156113375761132c83611dda565b94505050505061133f565b819450505050505b919050565b600160009054906101000a900473ffffffffffffffffffffffffffffffffffffffff1673ffffffffffffffffffffffffffffffffffffffff16631f5bdf5d336040518263ffffffff1660e01b8152600401808273ffffffffffffffffffffffffffffffffffffffff1673ffffffffffffffffffffffffffffffffffffffff16815260200191505060206040518083038186803b1580156113e357600080fd5b505afa1580156113f7573d6000803e3d6000fd5b505050506040513d602081101561140d57600080fd5b8101908080519060200190929190505050611473576040517f08c379a000000000000000000000000000000000000000000000000000000000815260040180806020018281038252602a8152602001806121a5602a913960400191505060405180910390fd5b600260009054906101000a900473ffffffffffffffffffffffffffffffffffffffff1673ffffffffffffffffffffffffffffffffffffffff16637541475f826040518263ffffffff1660e01b81526004018082815260200191505060206040518083038186803b1580156114e657600080fd5b505afa1580156114fa573d6000803e3d6000fd5b505050506040513d602081101561151057600080fd5b810190808051906020019092919050505015611594576040517f08c379a000000000000000000000000000000000000000000000000000000000815260040180806020018281038252601c8152602001807f5061696e74696e6720697320616c72656164792061646f70746564200000000081525060200191505060405180910390fd5b600061159f8261171b565b9050348111156115fa576040517f08c379a000000000000000000000000000000000000000000000000000000000815260040180806020018281038252602881526020018061217d6028913960400191505060405180910390fd5b600260009054906101000a900473ffffffffffffffffffffffffffffffffffffffff1673ffffffffffffffffffffffffffffffffffffffff1663095ea7b333846040518363ffffffff1660e01b8152600401808373ffffffffffffffffffffffffffffffffffffffff1673ffffffffffffffffffffffffffffffffffffffff16815260200182815260200192505050600060405180830381600087803b1580156116a357600080fd5b505af11580156116b7573d6000803e3d6000fd5b50505050600081340390503373ffffffffffffffffffffffffffffffffffffffff166108fc829081150290604051600060405180830381858888f19350505050158015611708573d6000803e3d6000fd5b50505050565b6000600380549050905090565b6000611725612092565b60056000848152602001908152602001600020604051806080016040529081600082018054600181600116156101000203166002900480601f0160208091040260200160405190810160405280929190818152602001828054600181600116156101000203166002900480156117dc5780601f106117b1576101008083540402835291602001916117dc565b820191906000526020600020905b8154815290600101906020018083116117bf57829003601f168201915b50505050508152602001600182015481526020016002820160009054906101000a90046fffffffffffffffffffffffffffffffff166fffffffffffffffffffffffffffffffff166fffffffffffffffffffffffffffffffff1681526020016002820160109054906101000a900460ff16600181111561185757fe5b600181111561186257fe5b81525050905080604001516fffffffffffffffffffffffffffffffff16915050919050565b6000809054906101000a900473ffffffffffffffffffffffffffffffffffffffff1681565b600481815481106118b957fe5b9060005260206000209060030201600091509050806000018054600181600116156101000203166002900480601f0160208091040260200160405190810160405280929190818152602001828054600181600116156101000203166002900480156119655780601f1061193a57610100808354040283529160200191611965565b820191906000526020600020905b81548152906001019060200180831161194857829003601f168201915b5050505050908060010154908060020160009054906101000a90046fffffffffffffffffffffffffffffffff16908060020160109054906101000a900460ff16905084565b6119b2612092565b6040518060800160405280868152602001858152602001846fffffffffffffffffffffffffffffffff1681526020018360018111156119ed57fe5b81525090506000600260009054906101000a900473ffffffffffffffffffffffffffffffffffffffff1673ffffffffffffffffffffffffffffffffffffffff166340c10f1930876040518363ffffffff1660e01b8152600401808373ffffffffffffffffffffffffffffffffffffffff1673ffffffffffffffffffffffffffffffffffffffff16815260200182815260200192505050602060405180830381600087803b158015611a9d57600080fd5b505af1158015611ab1573d6000803e3d6000fd5b505050506040513d6020811015611ac757600080fd5b81019080805190602001909291905050509050808015611aec5750611aeb8261205b565b5b15611c04573073ffffffffffffffffffffffffffffffffffffffff167fc01f3b1bf6e2dc7ec2dcbd2419c4ca6c447c946f3ac61e4e8ec533dc262f84af866040518082815260200191505060405180910390a2600382908060018154018082558091505090600182039060005260206000209060030201600090919290919091506000820151816000019080519060200190611b899291906120d7565b506020820151816001015560408201518160020160006101000a8154816fffffffffffffffffffffffffffffffff02191690836fffffffffffffffffffffffffffffffff16021790555060608201518160020160106101000a81548160ff02191690836001811115611bf757fe5b0217905550505050611d2c565b808015611c175750611c158261205b565b155b15611d2b573073ffffffffffffffffffffffffffffffffffffffff167fbe353d0c20986c3eb80f73935373be8739d699d861c827a5742e478b6b2c2867866040518082815260200191505060405180910390a2600482908060018154018082558091505090600182039060005260206000209060030201600090919290919091506000820151816000019080519060200190611cb49291906120d7565b506020820151816001015560408201518160020160006101000a8154816fffffffffffffffffffffffffffffffff02191690836fffffffffffffffffffffffffffffffff16021790555060608201518160020160106101000a81548160ff02191690836001811115611d2257fe5b02179055505050505b5b81600560008781526020019081526020016000206000820151816000019080519060200190611d5c9291906120d7565b506020820151816001015560408201518160020160006101000a8154816fffffffffffffffffffffffffffffffff02191690836fffffffffffffffffffffffffffffffff16021790555060608201518160020160106101000a81548160ff02191690836001811115611dca57fe5b0217905550905050505050505050565b606060008273ffffffffffffffffffffffffffffffffffffffff1660001b905060606040518060400160405280601081526020017f303132333435363738396162636465660000000000000000000000000000000081525090506060602a6040519080825280601f01601f191660200182016040528015611e6a5781602001600182028038833980820191505090505b5090507f300000000000000000000000000000000000000000000000000000000000000081600081518110611e9b57fe5b60200101907effffffffffffffffffffffffffffffffffffffffffffffffffffffffffffff1916908160001a9053507f780000000000000000000000000000000000000000000000000000000000000081600181518110611ef857fe5b60200101907effffffffffffffffffffffffffffffffffffffffffffffffffffffffffffff1916908160001a90535060008090505b601481101561204f5782600485600c840160208110611f4857fe5b1a60f81b7effffffffffffffffffffffffffffffffffffffffffffffffffffffffffffff1916901c60f81c60ff1681518110611f8057fe5b602001015160f81c60f81b826002830260020181518110611f9d57fe5b60200101907effffffffffffffffffffffffffffffffffffffffffffffffffffffffffffff1916908160001a90535082600f60f81b85600c840160208110611fe157fe5b1a60f81b1660f81c60ff1681518110611ff657fe5b602001015160f81c60f81b82600283026003018151811061201357fe5b60200101907effffffffffffffffffffffffffffffffffffffffffffffffffffffffffffff1916908160001a9053508080600101915050611f2d565b50809350505050919050565b600080600181111561206957fe5b8260600151600181111561207957fe5b1415612088576001905061208d565b600090505b919050565b6040518060800160405280606081526020016000815260200160006fffffffffffffffffffffffffffffffff168152602001600060018111156120d157fe5b81525090565b828054600181600116156101000203166002900490600052602060002090601f016020900481019282601f1061211857805160ff1916838001178555612146565b82800160010185558215612146579182015b8281111561214557825182559160200191906001019061212a565b5b5090506121539190612157565b5090565b61217991905b8082111561217557600081600090555060010161215d565b5090565b9056fe41646f7074696f6e206e6f7420706f737369626c6520666f72207468652076616c75652073656e744f6e6c7920526567697374657265642055736572732063616e2061646f70742061207061696e74696e674f6e6c792041646d696e20616c6c6f77656420746f20706572666f726d206f7065726174696f6ea265627a7a72305820950bd404a39ab23d586d3e0619d67d862cc55e81f3c1af21cd6107528af55cdc64736f6c634300050a0032",
  "source": "pragma solidity ^0.5.10;\n\nimport \"@openzeppelin/contracts/token/ERC721/ERC721Holder.sol\";\n\nimport \"./UserManager.sol\";\nimport \"./DeMuse.sol\";\n\n/**\n   DeMuse , a decentralized musuem for painting auctio/adoption\n    @title : DeMuse contract and Token\n*/\ncontract TheMuseum is ERC721Holder{\n\n    address public admin;\n    UserManager userMgr;\n    DeMuse deMuse;\n\n    event AdoptionPaintingAdded(address indexed owner,uint256 paintingID);\n    event AuctionPaintingAdded(address indexed owner,uint256 paintingID);\n\n    enum PaintingFor {Adoption, Auction}\n\n    /**\n     * Structurefor paintings\n     */\n    struct DigiPainting{\n        string name;\n        uint256 paintingID;\n        uint128 weiValue;\n        PaintingFor pType;\n    }\n\n    DigiPainting[] public adoptionPaintings;\n    DigiPainting[] public auctionPaintings;\n\n    mapping (uint256 => DigiPainting) paintings;\n\n    constructor( address deMuseAddress, address mgrAddress) public {\n        userMgr = UserManager(mgrAddress);\n        admin = msg.sender;\n\n        deMuse = DeMuse(deMuseAddress);\n    }\n\n    modifier onlyAdmin() {\n        require(msg.sender == admin,\"Only Admin allowed to perform operation\");\n        _;\n    }\n\n    function newPaintingForAdoption(string memory _name, uint256 pID, uint128 value)\n    public onlyAdmin{\n        addPainting(_name,pID,value,PaintingFor.Adoption);\n    }\n\n    function newPaintingForAuction(string memory _name, uint256 pID, uint128 value)\n    public onlyAdmin{\n        addPainting(_name,pID,value,PaintingFor.Auction);\n    }\n\n    function addPainting(string memory _name, uint256 pID, uint128 value, PaintingFor paintingType)\n    private {\n        DigiPainting memory painting = DigiPainting({\n           name: _name,\n           paintingID: pID,\n           weiValue: value,\n           pType: PaintingFor(paintingType)\n        });\n\n        bool mintStatus = deMuse.mint(address(this),pID);\n        if(mintStatus && isAdoptPainting(painting)){\n            emit AdoptionPaintingAdded(address(this),pID);\n            adoptionPaintings.push(painting);\n        }else if (mintStatus && !isAdoptPainting(painting)){\n            emit AuctionPaintingAdded(address(this),pID);\n            auctionPaintings.push(painting);\n        }\n        paintings[pID] = painting;\n   }\n\n    /**\n     * @param painting structure instance of a Digipainting\n     * @return true is the painting is an adoption painting\n     */\n    function isAdoptPainting(DigiPainting memory painting)\n    private pure returns(bool){\n        if(painting.pType == PaintingFor.Adoption){\n           return true;\n        }else {\n           return false;\n        }\n    }\n\n    /**\n     * @return uint representing the number of adoption paintings\n     */\n    function numberOfAdoptionPaintings() external view returns (uint){\n        return adoptionPaintings.length;\n    }\n\n    /**\n     * @return uint representing the number of auction paintings\n     */\n    function numberOfAuctionPaintings() external view returns (uint){\n        return auctionPaintings.length;\n    }\n\n    function getAdoptedBy(uint256 paintingId) external view returns(string memory){\n        string memory empty = \"\";\n        address adoptedBy = deMuse.ownerOf(paintingId);\n        (string memory name, uint8 role) = userMgr.getUserInfo(adoptedBy);\n        if(keccak256(abi.encodePacked((name))) == keccak256(abi.encodePacked((empty)))){\n            return addressToString(adoptedBy);\n        }else{\n            return name;\n        }\n    }\n\n    function addressToString(address _addr) private pure returns(string memory) {\n    bytes32 value = bytes32(uint256(_addr));\n    bytes memory alphabet = \"0123456789abcdef\";\n\n    bytes memory str = new bytes(42);\n    str[0] = '0';\n    str[1] = 'x';\n    for (uint i = 0; i < 20; i++) {\n        str[2+i*2] = alphabet[uint(uint8(value[i + 12] >> 4))];\n        str[3+i*2] = alphabet[uint(uint8(value[i + 12] & 0x0f))];\n    }\n    return string(str);\n    }\n\n    function tokenName() public view returns(string memory){\n        return deMuse.name();\n    }\n\n    function tokenSymbol() public view returns(string memory){\n        return deMuse.symbol();\n    }\n\n    function adoptionApproval(uint256 paintingId) public payable {\n        require(userMgr.isRegisteredUser(msg.sender), \"Only Registered Users can adopt a painting\");\n        require(!deMuse.isAdopted(paintingId),\"Painting is already adopted \");\n\n        uint adoptionValue = getAdoptionValue(paintingId);\n        require(adoptionValue <= msg.value, \"Adoption not possible for the value sent\");\n\n        deMuse.approve(msg.sender,paintingId);\n\n        uint balance = msg.value - adoptionValue;\n        msg.sender.transfer(balance);\n    }\n\n    function getAdoptionValue(uint256 paintingId) public view returns(uint256){\n        DigiPainting memory painting = paintings[paintingId];\n        return painting.weiValue;\n    }\n\n    function reverseAdoption(uint256 paintingId) public onlyAdmin {\n        address adoptedBy = deMuse.ownerOf(paintingId);\n        deMuse.safeTransferFrom(adoptedBy, address(this),paintingId);\n    }\n}",
  "sourcePath": "/home/sdc/deMuse/deMuse/contracts/TheMuseum.sol",
  "compiler": {
    "name": "solc",
    "version": "0.5.10+commit.5a6ea5b1.Emscripten.clang"
  },
  "schemaVersion": "3.0.11",
  "updatedAt": "2019-08-17T01:03:39.340Z",
  "devdoc": {
    "methods": {
      "numberOfAdoptionPaintings()": {
        "return": "uint representing the number of adoption paintings"
      },
      "numberOfAuctionPaintings()": {
        "return": "uint representing the number of auction paintings"
      }
    },
    "title": ": DeMuse contract and Token"
  },
  "userdoc": {
    "methods": {},
    "notice": "DeMuse , a decentralized musuem for painting auctio/adoption"
  }
}