{
  "contractName": "TheMuseum",
  "abi": [
    {
      "constant": true,
      "inputs": [
        {
          "name": "",
          "type": "uint256"
        }
      ],
      "name": "adoptionPaintings",
      "outputs": [
        {
          "name": "name",
          "type": "string"
        },
        {
          "name": "paintingID",
          "type": "uint256"
        },
        {
          "name": "weiValue",
          "type": "uint128"
        },
        {
          "name": "pType",
          "type": "uint8"
        }
      ],
      "payable": false,
      "stateMutability": "view",
      "type": "function"
    },
    {
      "constant": false,
      "inputs": [
        {
          "name": "",
          "type": "address"
        },
        {
          "name": "",
          "type": "address"
        },
        {
          "name": "",
          "type": "uint256"
        },
        {
          "name": "",
          "type": "bytes"
        }
      ],
      "name": "onERC721Received",
      "outputs": [
        {
          "name": "",
          "type": "bytes4"
        }
      ],
      "payable": false,
      "stateMutability": "nonpayable",
      "type": "function"
    },
    {
      "constant": true,
      "inputs": [],
      "name": "admin",
      "outputs": [
        {
          "name": "",
          "type": "address"
        }
      ],
      "payable": false,
      "stateMutability": "view",
      "type": "function"
    },
    {
      "constant": true,
      "inputs": [
        {
          "name": "",
          "type": "uint256"
        }
      ],
      "name": "auctionPaintings",
      "outputs": [
        {
          "name": "name",
          "type": "string"
        },
        {
          "name": "paintingID",
          "type": "uint256"
        },
        {
          "name": "weiValue",
          "type": "uint128"
        },
        {
          "name": "pType",
          "type": "uint8"
        }
      ],
      "payable": false,
      "stateMutability": "view",
      "type": "function"
    },
    {
      "inputs": [
        {
          "name": "deMuseAddress",
          "type": "address"
        },
        {
          "name": "mgrAddress",
          "type": "address"
        }
      ],
      "payable": false,
      "stateMutability": "nonpayable",
      "type": "constructor"
    },
    {
      "anonymous": false,
      "inputs": [
        {
          "indexed": true,
          "name": "owner",
          "type": "address"
        },
        {
          "indexed": false,
          "name": "paintingID",
          "type": "uint256"
        }
      ],
      "name": "AdoptionPaintingAdded",
      "type": "event"
    },
    {
      "anonymous": false,
      "inputs": [
        {
          "indexed": true,
          "name": "owner",
          "type": "address"
        },
        {
          "indexed": false,
          "name": "paintingID",
          "type": "uint256"
        }
      ],
      "name": "AuctionPaintingAdded",
      "type": "event"
    },
    {
      "anonymous": false,
      "inputs": [
        {
          "indexed": false,
          "name": "log",
          "type": "string"
        }
      ],
      "name": "DebugLog",
      "type": "event"
    },
    {
      "constant": false,
      "inputs": [
        {
          "name": "_name",
          "type": "string"
        },
        {
          "name": "pID",
          "type": "uint256"
        },
        {
          "name": "value",
          "type": "uint128"
        }
      ],
      "name": "newPaintingForAdoption",
      "outputs": [],
      "payable": false,
      "stateMutability": "nonpayable",
      "type": "function"
    },
    {
      "constant": false,
      "inputs": [
        {
          "name": "_name",
          "type": "string"
        },
        {
          "name": "pID",
          "type": "uint256"
        },
        {
          "name": "value",
          "type": "uint128"
        }
      ],
      "name": "newPaintingForAuction",
      "outputs": [],
      "payable": false,
      "stateMutability": "nonpayable",
      "type": "function"
    },
    {
      "constant": true,
      "inputs": [],
      "name": "numberOfAdoptionPaintings",
      "outputs": [
        {
          "name": "",
          "type": "uint256"
        }
      ],
      "payable": false,
      "stateMutability": "view",
      "type": "function"
    },
    {
      "constant": true,
      "inputs": [],
      "name": "numberOfAuctionPaintings",
      "outputs": [
        {
          "name": "",
          "type": "uint256"
        }
      ],
      "payable": false,
      "stateMutability": "view",
      "type": "function"
    },
    {
      "constant": true,
      "inputs": [
        {
          "name": "paintingId",
          "type": "uint256"
        }
      ],
      "name": "getAdoptedBy",
      "outputs": [
        {
          "name": "",
          "type": "string"
        }
      ],
      "payable": false,
      "stateMutability": "view",
      "type": "function"
    },
    {
      "constant": true,
      "inputs": [],
      "name": "tokenName",
      "outputs": [
        {
          "name": "",
          "type": "string"
        }
      ],
      "payable": false,
      "stateMutability": "view",
      "type": "function"
    },
    {
      "constant": true,
      "inputs": [],
      "name": "tokenSymbol",
      "outputs": [
        {
          "name": "",
          "type": "string"
        }
      ],
      "payable": false,
      "stateMutability": "view",
      "type": "function"
    },
    {
      "constant": false,
      "inputs": [
        {
          "name": "paintingId",
          "type": "uint256"
        }
      ],
      "name": "adoptionApproval",
      "outputs": [],
      "payable": true,
      "stateMutability": "payable",
      "type": "function"
    },
    {
      "constant": true,
      "inputs": [
        {
          "name": "paintingId",
          "type": "uint256"
        }
      ],
      "name": "getAdoptionValue",
      "outputs": [
        {
          "name": "",
          "type": "uint256"
        }
      ],
      "payable": false,
      "stateMutability": "view",
      "type": "function"
    }
  ],
  "bytecode": "0x608060405234801561001057600080fd5b506040516122ad3803806122ad8339818101604052604081101561003357600080fd5b81019080805190602001909291908051906020019092919050505080600160006101000a81548173ffffffffffffffffffffffffffffffffffffffff021916908373ffffffffffffffffffffffffffffffffffffffff160217905550336000806101000a81548173ffffffffffffffffffffffffffffffffffffffff021916908373ffffffffffffffffffffffffffffffffffffffff16021790555081600260006101000a81548173ffffffffffffffffffffffffffffffffffffffff021916908373ffffffffffffffffffffffffffffffffffffffff160217905550505061218c806101216000396000f3fe6080604052600436106100c15760003560e01c80637b61c3201161007f578063e487e60311610059578063e487e6031461072e578063f678ea3514610759578063f851a440146107a8578063fea1843f146107ff576100c1565b80637b61c320146105bc5780638343e5221461064c578063b09d038714610700576100c1565b80625305c3146100c657806301427b4d146101b4578063150b7a02146102af578063604563af146104135780636c02a93114610501578063712e9fe214610591575b600080fd5b3480156100d257600080fd5b506101b2600480360360608110156100e957600080fd5b810190808035906020019064010000000081111561010657600080fd5b82018360208201111561011857600080fd5b8035906020019184600183028401116401000000008311171561013a57600080fd5b91908080601f016020809104026020016040519081016040528093929190818152602001838380828437600081840152601f19601f8201169050808301925050505050505091929192908035906020019092919080356fffffffffffffffffffffffffffffffff1690602001909291905050506108fa565b005b3480156101c057600080fd5b506101ed600480360360208110156101d757600080fd5b8101908080359060200190929190505050610a19565b6040518080602001858152602001846fffffffffffffffffffffffffffffffff166fffffffffffffffffffffffffffffffff16815260200183600181111561023157fe5b60ff168152602001828103825286818151815260200191508051906020019080838360005b83811015610271578082015181840152602081019050610256565b50505050905090810190601f16801561029e5780820380516001836020036101000a031916815260200191505b509550505050505060405180910390f35b3480156102bb57600080fd5b506103bf600480360360808110156102d257600080fd5b81019080803573ffffffffffffffffffffffffffffffffffffffff169060200190929190803573ffffffffffffffffffffffffffffffffffffffff169060200190929190803590602001909291908035906020019064010000000081111561033957600080fd5b82018360208201111561034b57600080fd5b8035906020019184600183028401116401000000008311171561036d57600080fd5b91908080601f016020809104026020016040519081016040528093929190818152602001838380828437600081840152601f19601f820116905080830192505050505050509192919290505050610b17565b60405180827bffffffffffffffffffffffffffffffffffffffffffffffffffffffff19167bffffffffffffffffffffffffffffffffffffffffffffffffffffffff1916815260200191505060405180910390f35b34801561041f57600080fd5b506104ff6004803603606081101561043657600080fd5b810190808035906020019064010000000081111561045357600080fd5b82018360208201111561046557600080fd5b8035906020019184600183028401116401000000008311171561048757600080fd5b91908080601f016020809104026020016040519081016040528093929190818152602001838380828437600081840152601f19601f8201169050808301925050505050505091929192908035906020019092919080356fffffffffffffffffffffffffffffffff169060200190929190505050610b2b565b005b34801561050d57600080fd5b50610516610cb2565b6040518080602001828103825283818151815260200191508051906020019080838360005b8381101561055657808201518184015260208101905061053b565b50505050905090810190601f1680156105835780820380516001836020036101000a031916815260200191505b509250505060405180910390f35b34801561059d57600080fd5b506105a6610db2565b6040518082815260200191505060405180910390f35b3480156105c857600080fd5b506105d1610dbf565b6040518080602001828103825283818151815260200191508051906020019080838360005b838110156106115780820151818401526020810190506105f6565b50505050905090810190601f16801561063e5780820380516001836020036101000a031916815260200191505b509250505060405180910390f35b34801561065857600080fd5b506106856004803603602081101561066f57600080fd5b8101908080359060200190929190505050610ebf565b6040518080602001828103825283818151815260200191508051906020019080838360005b838110156106c55780820151818401526020810190506106aa565b50505050905090810190601f1680156106f25780820380516001836020036101000a031916815260200191505b509250505060405180910390f35b61072c6004803603602081101561071657600080fd5b81019080803590602001909291905050506111d6565b005b34801561073a57600080fd5b506107436115a0565b6040518082815260200191505060405180910390f35b34801561076557600080fd5b506107926004803603602081101561077c57600080fd5b81019080803590602001909291905050506115ad565b6040518082815260200191505060405180910390f35b3480156107b457600080fd5b506107bd611719565b604051808273ffffffffffffffffffffffffffffffffffffffff1673ffffffffffffffffffffffffffffffffffffffff16815260200191505060405180910390f35b34801561080b57600080fd5b506108386004803603602081101561082257600080fd5b810190808035906020019092919050505061173e565b6040518080602001858152602001846fffffffffffffffffffffffffffffffff166fffffffffffffffffffffffffffffffff16815260200183600181111561087c57fe5b60ff168152602001828103825286818151815260200191508051906020019080838360005b838110156108bc5780820151818401526020810190506108a1565b50505050905090810190601f1680156108e95780820380516001836020036101000a031916815260200191505b509550505050505060405180910390f35b7f4be5e2ddd7b814bfc07153581bbbda6ea3d62d61c270f9788cae2f0297e18ae86040518080602001828103825260158152602001807f696e206f6e6c7941646d696e206d6f646966696572000000000000000000000081525060200191505060405180910390a16000809054906101000a900473ffffffffffffffffffffffffffffffffffffffff1673ffffffffffffffffffffffffffffffffffffffff163373ffffffffffffffffffffffffffffffffffffffff1614610a07576040517f08c379a00000000000000000000000000000000000000000000000000000000081526004018080602001828103825260278152602001806121316027913960400191505060405180910390fd5b610a14838383600161183c565b505050565b60038181548110610a2657fe5b9060005260206000209060030201600091509050806000018054600181600116156101000203166002900480601f016020809104026020016040519081016040528092919081815260200182805460018160011615610100020316600290048015610ad25780601f10610aa757610100808354040283529160200191610ad2565b820191906000526020600020905b815481529060010190602001808311610ab557829003601f168201915b5050505050908060010154908060020160009054906101000a90046fffffffffffffffffffffffffffffffff16908060020160109054906101000a900460ff16905084565b600063150b7a0260e01b9050949350505050565b7f4be5e2ddd7b814bfc07153581bbbda6ea3d62d61c270f9788cae2f0297e18ae86040518080602001828103825260158152602001807f696e206f6e6c7941646d696e206d6f646966696572000000000000000000000081525060200191505060405180910390a16000809054906101000a900473ffffffffffffffffffffffffffffffffffffffff1673ffffffffffffffffffffffffffffffffffffffff163373ffffffffffffffffffffffffffffffffffffffff1614610c38576040517f08c379a00000000000000000000000000000000000000000000000000000000081526004018080602001828103825260278152602001806121316027913960400191505060405180910390fd5b7f4be5e2ddd7b814bfc07153581bbbda6ea3d62d61c270f9788cae2f0297e18ae86040518080602001828103825260198152602001807f696e206e65775061696e74696e67466f7241646f7074696f6e0000000000000081525060200191505060405180910390a1610cad838383600061183c565b505050565b6060600260009054906101000a900473ffffffffffffffffffffffffffffffffffffffff1673ffffffffffffffffffffffffffffffffffffffff166306fdde036040518163ffffffff1660e01b815260040160006040518083038186803b158015610d1c57600080fd5b505afa158015610d30573d6000803e3d6000fd5b505050506040513d6000823e3d601f19601f820116820180604052506020811015610d5a57600080fd5b810190808051640100000000811115610d7257600080fd5b82810190506020810184811115610d8857600080fd5b8151856001820283011164010000000082111715610da557600080fd5b5050929190505050905090565b6000600480549050905090565b6060600260009054906101000a900473ffffffffffffffffffffffffffffffffffffffff1673ffffffffffffffffffffffffffffffffffffffff166395d89b416040518163ffffffff1660e01b815260040160006040518083038186803b158015610e2957600080fd5b505afa158015610e3d573d6000803e3d6000fd5b505050506040513d6000823e3d601f19601f820116820180604052506020811015610e6757600080fd5b810190808051640100000000811115610e7f57600080fd5b82810190506020810184811115610e9557600080fd5b8151856001820283011164010000000082111715610eb257600080fd5b5050929190505050905090565b6060806040518060200160405280600081525090506000600260009054906101000a900473ffffffffffffffffffffffffffffffffffffffff1673ffffffffffffffffffffffffffffffffffffffff16636352211e856040518263ffffffff1660e01b81526004018082815260200191505060206040518083038186803b158015610f4957600080fd5b505afa158015610f5d573d6000803e3d6000fd5b505050506040513d6020811015610f7357600080fd5b8101908080519060200190929190505050905060606000600160009054906101000a900473ffffffffffffffffffffffffffffffffffffffff1673ffffffffffffffffffffffffffffffffffffffff16636386c1c7846040518263ffffffff1660e01b8152600401808273ffffffffffffffffffffffffffffffffffffffff1673ffffffffffffffffffffffffffffffffffffffff16815260200191505060006040518083038186803b15801561102957600080fd5b505afa15801561103d573d6000803e3d6000fd5b505050506040513d6000823e3d601f19601f82011682018060405250604081101561106757600080fd5b81019080805164010000000081111561107f57600080fd5b8281019050602081018481111561109557600080fd5b81518560018202830111640100000000821117156110b257600080fd5b50509291906020018051906020019092919050505091509150836040516020018082805190602001908083835b6020831061110257805182526020820191506020810190506020830392506110df565b6001836020036101000a03801982511681845116808217855250505050505090500191505060405160208183030381529060405280519060200120826040516020018082805190602001908083835b602083106111745780518252602082019150602081019050602083039250611151565b6001836020036101000a0380198251168184511680821785525050505050509050019150506040516020818303038152906040528051906020012014156111c9576111be83611d3c565b9450505050506111d1565b819450505050505b919050565b600160009054906101000a900473ffffffffffffffffffffffffffffffffffffffff1673ffffffffffffffffffffffffffffffffffffffff16631f5bdf5d336040518263ffffffff1660e01b8152600401808273ffffffffffffffffffffffffffffffffffffffff1673ffffffffffffffffffffffffffffffffffffffff16815260200191505060206040518083038186803b15801561127557600080fd5b505afa158015611289573d6000803e3d6000fd5b505050506040513d602081101561129f57600080fd5b8101908080519060200190929190505050611305576040517f08c379a000000000000000000000000000000000000000000000000000000000815260040180806020018281038252602a815260200180612107602a913960400191505060405180910390fd5b600260009054906101000a900473ffffffffffffffffffffffffffffffffffffffff1673ffffffffffffffffffffffffffffffffffffffff16637541475f826040518263ffffffff1660e01b81526004018082815260200191505060206040518083038186803b15801561137857600080fd5b505afa15801561138c573d6000803e3d6000fd5b505050506040513d60208110156113a257600080fd5b810190808051906020019092919050505015611426576040517f08c379a000000000000000000000000000000000000000000000000000000000815260040180806020018281038252601c8152602001807f5061696e74696e6720697320616c72656164792061646f70746564200000000081525060200191505060405180910390fd5b6000611431826115ad565b90503481111561148c576040517f08c379a00000000000000000000000000000000000000000000000000000000081526004018080602001828103825260288152602001806120df6028913960400191505060405180910390fd5b600260009054906101000a900473ffffffffffffffffffffffffffffffffffffffff1673ffffffffffffffffffffffffffffffffffffffff1663095ea7b333846040518363ffffffff1660e01b8152600401808373ffffffffffffffffffffffffffffffffffffffff1673ffffffffffffffffffffffffffffffffffffffff16815260200182815260200192505050600060405180830381600087803b15801561153557600080fd5b505af1158015611549573d6000803e3d6000fd5b50505050600081340390503373ffffffffffffffffffffffffffffffffffffffff166108fc829081150290604051600060405180830381858888f1935050505015801561159a573d6000803e3d6000fd5b50505050565b6000600380549050905090565b60006115b7611ff4565b60056000848152602001908152602001600020604051806080016040529081600082018054600181600116156101000203166002900480601f01602080910402602001604051908101604052809291908181526020018280546001816001161561010002031660029004801561166e5780601f106116435761010080835404028352916020019161166e565b820191906000526020600020905b81548152906001019060200180831161165157829003601f168201915b50505050508152602001600182015481526020016002820160009054906101000a90046fffffffffffffffffffffffffffffffff166fffffffffffffffffffffffffffffffff166fffffffffffffffffffffffffffffffff1681526020016002820160109054906101000a900460ff1660018111156116e957fe5b60018111156116f457fe5b81525050905080604001516fffffffffffffffffffffffffffffffff16915050919050565b6000809054906101000a900473ffffffffffffffffffffffffffffffffffffffff1681565b6004818154811061174b57fe5b9060005260206000209060030201600091509050806000018054600181600116156101000203166002900480601f0160208091040260200160405190810160405280929190818152602001828054600181600116156101000203166002900480156117f75780601f106117cc576101008083540402835291602001916117f7565b820191906000526020600020905b8154815290600101906020018083116117da57829003601f168201915b5050505050908060010154908060020160009054906101000a90046fffffffffffffffffffffffffffffffff16908060020160109054906101000a900460ff16905084565b7f4be5e2ddd7b814bfc07153581bbbda6ea3d62d61c270f9788cae2f0297e18ae860405180806020018281038252600e8152602001807f696e206164645061696e74696e6700000000000000000000000000000000000081525060200191505060405180910390a16118ac611ff4565b6040518060800160405280868152602001858152602001846fffffffffffffffffffffffffffffffff1681526020018360018111156118e757fe5b81525090506000600260009054906101000a900473ffffffffffffffffffffffffffffffffffffffff1673ffffffffffffffffffffffffffffffffffffffff166340c10f1930876040518363ffffffff1660e01b8152600401808373ffffffffffffffffffffffffffffffffffffffff1673ffffffffffffffffffffffffffffffffffffffff16815260200182815260200192505050602060405180830381600087803b15801561199757600080fd5b505af11580156119ab573d6000803e3d6000fd5b505050506040513d60208110156119c157600080fd5b810190808051906020019092919050505090507f4be5e2ddd7b814bfc07153581bbbda6ea3d62d61c270f9788cae2f0297e18ae860405180806020018281038252600d8152602001807f696e206166746572206d696e740000000000000000000000000000000000000081525060200191505060405180910390a1808015611a4e5750611a4d82611fbd565b5b15611b66573073ffffffffffffffffffffffffffffffffffffffff167fc01f3b1bf6e2dc7ec2dcbd2419c4ca6c447c946f3ac61e4e8ec533dc262f84af866040518082815260200191505060405180910390a2600382908060018154018082558091505090600182039060005260206000209060030201600090919290919091506000820151816000019080519060200190611aeb929190612039565b506020820151816001015560408201518160020160006101000a8154816fffffffffffffffffffffffffffffffff02191690836fffffffffffffffffffffffffffffffff16021790555060608201518160020160106101000a81548160ff02191690836001811115611b5957fe5b0217905550505050611c8e565b808015611b795750611b7782611fbd565b155b15611c8d573073ffffffffffffffffffffffffffffffffffffffff167fbe353d0c20986c3eb80f73935373be8739d699d861c827a5742e478b6b2c2867866040518082815260200191505060405180910390a2600482908060018154018082558091505090600182039060005260206000209060030201600090919290919091506000820151816000019080519060200190611c16929190612039565b506020820151816001015560408201518160020160006101000a8154816fffffffffffffffffffffffffffffffff02191690836fffffffffffffffffffffffffffffffff16021790555060608201518160020160106101000a81548160ff02191690836001811115611c8457fe5b02179055505050505b5b81600560008781526020019081526020016000206000820151816000019080519060200190611cbe929190612039565b506020820151816001015560408201518160020160006101000a8154816fffffffffffffffffffffffffffffffff02191690836fffffffffffffffffffffffffffffffff16021790555060608201518160020160106101000a81548160ff02191690836001811115611d2c57fe5b0217905550905050505050505050565b606060008273ffffffffffffffffffffffffffffffffffffffff1660001b905060606040518060400160405280601081526020017f303132333435363738396162636465660000000000000000000000000000000081525090506060602a6040519080825280601f01601f191660200182016040528015611dcc5781602001600182028038833980820191505090505b5090507f300000000000000000000000000000000000000000000000000000000000000081600081518110611dfd57fe5b60200101907effffffffffffffffffffffffffffffffffffffffffffffffffffffffffffff1916908160001a9053507f780000000000000000000000000000000000000000000000000000000000000081600181518110611e5a57fe5b60200101907effffffffffffffffffffffffffffffffffffffffffffffffffffffffffffff1916908160001a90535060008090505b6014811015611fb15782600485600c840160208110611eaa57fe5b1a60f81b7effffffffffffffffffffffffffffffffffffffffffffffffffffffffffffff1916901c60f81c60ff1681518110611ee257fe5b602001015160f81c60f81b826002830260020181518110611eff57fe5b60200101907effffffffffffffffffffffffffffffffffffffffffffffffffffffffffffff1916908160001a90535082600f60f81b85600c840160208110611f4357fe5b1a60f81b1660f81c60ff1681518110611f5857fe5b602001015160f81c60f81b826002830260030181518110611f7557fe5b60200101907effffffffffffffffffffffffffffffffffffffffffffffffffffffffffffff1916908160001a9053508080600101915050611e8f565b50809350505050919050565b6000806001811115611fcb57fe5b82606001516001811115611fdb57fe5b1415611fea5760019050611fef565b600090505b919050565b6040518060800160405280606081526020016000815260200160006fffffffffffffffffffffffffffffffff1681526020016000600181111561203357fe5b81525090565b828054600181600116156101000203166002900490600052602060002090601f016020900481019282601f1061207a57805160ff19168380011785556120a8565b828001600101855582156120a8579182015b828111156120a757825182559160200191906001019061208c565b5b5090506120b591906120b9565b5090565b6120db91905b808211156120d75760008160009055506001016120bf565b5090565b9056fe41646f7074696f6e206e6f7420706f737369626c6520666f72207468652076616c75652073656e744f6e6c7920526567697374657265642055736572732063616e2061646f70742061207061696e74696e674f6e6c792041646d696e20616c6c6f77656420746f20706572666f726d206f7065726174696f6ea265627a7a723058203e20d0477e3bd9e379be2f799bf1253ee1f0af5ad357539e26c25b5344fd08b164736f6c634300050a0032",
  "source": "pragma solidity ^0.5.10;\n\nimport \"@openzeppelin/contracts/token/ERC721/ERC721Holder.sol\";\n\nimport \"./UserManager.sol\";\nimport \"./DeMuse.sol\";\n\n/**\n   DeMuse , a decentralized musuem for painting auctio/adoption\n    @title : DeMuse contract and Token\n*/\ncontract TheMuseum is ERC721Holder{\n\n    address public admin;\n    UserManager userMgr;\n    DeMuse deMuse;\n\n    event AdoptionPaintingAdded(address indexed owner,uint256 paintingID);\n    event AuctionPaintingAdded(address indexed owner,uint256 paintingID);\n    event DebugLog(string log);\n\n    enum PaintingFor {Adoption, Auction}\n\n    /**\n     * Structurefor paintings\n     */\n    struct DigiPainting{\n        string name;\n        uint256 paintingID;\n        uint128 weiValue;\n        PaintingFor pType;\n    }\n\n    DigiPainting[] public adoptionPaintings;\n    DigiPainting[] public auctionPaintings;\n\n    mapping (uint256 => DigiPainting) paintings;\n\n    constructor( address deMuseAddress, address mgrAddress) public {\n        userMgr = UserManager(mgrAddress);\n        admin = msg.sender;\n\n        deMuse = DeMuse(deMuseAddress);\n    }\n\n    modifier onlyAdmin() {\n        emit DebugLog(\"in onlyAdmin modifier\");\n        require(msg.sender == admin,\"Only Admin allowed to perform operation\");\n        _;\n    }\n\n    function newPaintingForAdoption(string memory _name, uint256 pID, uint128 value)\n    public onlyAdmin{\n        emit DebugLog(\"in newPaintingForAdoption\");\n        addPainting(_name,pID,value,PaintingFor.Adoption);\n    }\n\n    function newPaintingForAuction(string memory _name, uint256 pID, uint128 value)\n    public onlyAdmin{\n        addPainting(_name,pID,value,PaintingFor.Auction);\n    }\n\n    function addPainting(string memory _name, uint256 pID, uint128 value, PaintingFor paintingType)\n    private {\n        emit DebugLog(\"in addPainting\");\n        DigiPainting memory painting = DigiPainting({\n           name: _name,\n           paintingID: pID,\n           weiValue: value,\n           pType: PaintingFor(paintingType)\n        });\n\n        bool mintStatus = deMuse.mint(address(this),pID);\n        emit DebugLog(\"in after mint\");\n        if(mintStatus && isAdoptPainting(painting)){\n            emit AdoptionPaintingAdded(address(this),pID);\n            adoptionPaintings.push(painting);\n        }else if (mintStatus && !isAdoptPainting(painting)){\n            emit AuctionPaintingAdded(address(this),pID);\n            auctionPaintings.push(painting);\n        }\n        paintings[pID] = painting;\n   }\n\n    /**\n     * @param painting structure instance of a Digipainting\n     * @return true is the painting is an adoption painting\n     */\n    function isAdoptPainting(DigiPainting memory painting)\n    private pure returns(bool){\n        if(painting.pType == PaintingFor.Adoption){\n           return true;\n        }else {\n           return false;\n        }\n    }\n\n    /**\n     * @return uint representing the number of adoption paintings\n     */\n    function numberOfAdoptionPaintings() external view returns (uint){\n        return adoptionPaintings.length;\n    }\n\n    /**\n     * @return uint representing the number of auction paintings\n     */\n    function numberOfAuctionPaintings() external view returns (uint){\n        return auctionPaintings.length;\n    }\n\n    function getAdoptedBy(uint256 paintingId) external view returns(string memory){\n        string memory empty = \"\";\n        address adoptedBy = deMuse.ownerOf(paintingId);\n        (string memory name, uint8 role) = userMgr.getUserInfo(adoptedBy);\n        if(keccak256(abi.encodePacked((name))) == keccak256(abi.encodePacked((empty)))){\n            return addressToString(adoptedBy);\n        }else{\n            return name;\n        }\n    }\n\n    function addressToString(address _addr) private pure returns(string memory) {\n    bytes32 value = bytes32(uint256(_addr));\n    bytes memory alphabet = \"0123456789abcdef\";\n\n    bytes memory str = new bytes(42);\n    str[0] = '0';\n    str[1] = 'x';\n    for (uint i = 0; i < 20; i++) {\n        str[2+i*2] = alphabet[uint(uint8(value[i + 12] >> 4))];\n        str[3+i*2] = alphabet[uint(uint8(value[i + 12] & 0x0f))];\n    }\n    return string(str);\n    }\n\n    function tokenName() public view returns(string memory){\n        return deMuse.name();\n    }\n\n    function tokenSymbol() public view returns(string memory){\n        return deMuse.symbol();\n    }\n\n    function adoptionApproval(uint256 paintingId) public payable {\n        require(userMgr.isRegisteredUser(msg.sender), \"Only Registered Users can adopt a painting\");\n        require(!deMuse.isAdopted(paintingId),\"Painting is already adopted \");\n\n        uint adoptionValue = getAdoptionValue(paintingId);\n        require(adoptionValue <= msg.value, \"Adoption not possible for the value sent\");\n\n        deMuse.approve(msg.sender,paintingId);\n\n        uint balance = msg.value - adoptionValue;\n        msg.sender.transfer(balance);\n    }\n\n    function getAdoptionValue(uint256 paintingId) public view returns(uint256){\n        DigiPainting memory painting = paintings[paintingId];\n        return painting.weiValue;\n    }\n}",
  "sourcePath": "/home/sdc/deMuse/deMuse/contracts/TheMuseum.sol",
  "compiler": {
    "name": "solc",
    "version": "0.5.10+commit.5a6ea5b1.Emscripten.clang"
  },
  "schemaVersion": "3.0.11",
  "updatedAt": "2019-08-16T19:33:21.762Z",
  "devdoc": {
    "methods": {
      "numberOfAdoptionPaintings()": {
        "return": "uint representing the number of adoption paintings"
      },
      "numberOfAuctionPaintings()": {
        "return": "uint representing the number of auction paintings"
      }
    },
    "title": ": DeMuse contract and Token"
  },
  "userdoc": {
    "methods": {},
    "notice": "DeMuse , a decentralized musuem for painting auctio/adoption"
  }
}