{
  "contractName": "UserManager",
  "abi": [
    {
      "inputs": [],
      "payable": false,
      "stateMutability": "nonpayable",
      "type": "constructor"
    },
    {
      "anonymous": false,
      "inputs": [
        {
          "indexed": true,
          "name": "user",
          "type": "address"
        },
        {
          "indexed": false,
          "name": "userName",
          "type": "string"
        }
      ],
      "name": "UserAdded",
      "type": "event"
    },
    {
      "constant": true,
      "inputs": [
        {
          "name": "userAddress",
          "type": "address"
        }
      ],
      "name": "getUserInfo",
      "outputs": [
        {
          "name": "",
          "type": "string"
        },
        {
          "name": "",
          "type": "uint8"
        }
      ],
      "payable": false,
      "stateMutability": "view",
      "type": "function"
    },
    {
      "constant": false,
      "inputs": [
        {
          "name": "name",
          "type": "string"
        }
      ],
      "name": "addUser",
      "outputs": [],
      "payable": true,
      "stateMutability": "payable",
      "type": "function"
    },
    {
      "constant": false,
      "inputs": [
        {
          "name": "museumContract",
          "type": "address"
        }
      ],
      "name": "addDeMuse",
      "outputs": [],
      "payable": true,
      "stateMutability": "payable",
      "type": "function"
    },
    {
      "constant": true,
      "inputs": [],
      "name": "getAdmin",
      "outputs": [
        {
          "name": "",
          "type": "address"
        }
      ],
      "payable": false,
      "stateMutability": "view",
      "type": "function"
    },
    {
      "constant": true,
      "inputs": [
        {
          "name": "userAddress",
          "type": "address"
        }
      ],
      "name": "isRegisteredUser",
      "outputs": [
        {
          "name": "",
          "type": "bool"
        }
      ],
      "payable": false,
      "stateMutability": "view",
      "type": "function"
    }
  ],
  "bytecode": "0x608060405234801561001057600080fd5b50600073ffffffffffffffffffffffffffffffffffffffff163373ffffffffffffffffffffffffffffffffffffffff1614156100b4576040517f08c379a000000000000000000000000000000000000000000000000000000000815260040180806020018281038252600f8152602001807f496e76616c69642061646472657373000000000000000000000000000000000081525060200191505060405180910390fd5b336000806101000a81548173ffffffffffffffffffffffffffffffffffffffff021916908373ffffffffffffffffffffffffffffffffffffffff16021790555060405180604001604052806040518060400160405280600581526020017f61646d696e000000000000000000000000000000000000000000000000000000815250815260200160028081111561014657fe5b60ff16815250600160008060009054906101000a900473ffffffffffffffffffffffffffffffffffffffff1673ffffffffffffffffffffffffffffffffffffffff1673ffffffffffffffffffffffffffffffffffffffff16815260200190815260200160002060008201518160000190805190602001906101c8929190610271565b5060208201518160010160006101000a81548160ff021916908360ff1602179055509050503373ffffffffffffffffffffffffffffffffffffffff167fa56e21173460286ea98fc3defc7671b9b8e2ff0c6acea8d6ed30b343724e23fa6040518080602001828103825260058152602001807f61646d696e00000000000000000000000000000000000000000000000000000081525060200191505060405180910390a2610316565b828054600181600116156101000203166002900490600052602060002090601f016020900481019282601f106102b257805160ff19168380011785556102e0565b828001600101855582156102e0579182015b828111156102df5782518255916020019190600101906102c4565b5b5090506102ed91906102f1565b5090565b61031391905b8082111561030f5760008160009055506001016102f7565b5090565b90565b610bef806103256000396000f3fe60806040526004361061004a5760003560e01c8063144e53c01461004f57806318b8275a146100935780631f5bdf5d1461014e5780636386c1c7146101b75780636e9960c31461028e575b600080fd5b6100916004803603602081101561006557600080fd5b81019080803573ffffffffffffffffffffffffffffffffffffffff1690602001909291905050506102e5565b005b61014c600480360360208110156100a957600080fd5b81019080803590602001906401000000008111156100c657600080fd5b8201836020820111156100d857600080fd5b803590602001918460018302840111640100000000831117156100fa57600080fd5b91908080601f016020809104026020016040519081016040528093929190818152602001838380828437600081840152601f19601f8201169050808301925050505050505091929192905050506104e5565b005b34801561015a57600080fd5b5061019d6004803603602081101561017157600080fd5b81019080803573ffffffffffffffffffffffffffffffffffffffff1690602001909291905050506107e7565b604051808215151515815260200191505060405180910390f35b3480156101c357600080fd5b50610206600480360360208110156101da57600080fd5b81019080803573ffffffffffffffffffffffffffffffffffffffff16906020019092919050505061092f565b60405180806020018360ff1660ff168152602001828103825284818151815260200191508051906020019080838360005b83811015610252578082015181840152602081019050610237565b50505050905090810190601f16801561027f5780820380516001836020036101000a031916815260200191505b50935050505060405180910390f35b34801561029a57600080fd5b506102a3610a5d565b604051808273ffffffffffffffffffffffffffffffffffffffff1673ffffffffffffffffffffffffffffffffffffffff16815260200191505060405180910390f35b6000809054906101000a900473ffffffffffffffffffffffffffffffffffffffff1673ffffffffffffffffffffffffffffffffffffffff163373ffffffffffffffffffffffffffffffffffffffff161461038a576040517f08c379a0000000000000000000000000000000000000000000000000000000008152600401808060200182810382526027815260200180610b496027913960400191505060405180910390fd5b60405180604001604052806040518060400160405280600681526020017f4d757365756d00000000000000000000000000000000000000000000000000008152508152602001600160028111156103dd57fe5b60ff16815250600160008373ffffffffffffffffffffffffffffffffffffffff1673ffffffffffffffffffffffffffffffffffffffff168152602001908152602001600020600082015181600001908051906020019061043e929190610a86565b5060208201518160010160006101000a81548160ff021916908360ff1602179055509050508073ffffffffffffffffffffffffffffffffffffffff167fa56e21173460286ea98fc3defc7671b9b8e2ff0c6acea8d6ed30b343724e23fa6040518080602001828103825260068152602001807f4d757365756d000000000000000000000000000000000000000000000000000081525060200191505060405180910390a250565b600073ffffffffffffffffffffffffffffffffffffffff163373ffffffffffffffffffffffffffffffffffffffff161415610588576040517f08c379a00000000000000000000000000000000000000000000000000000000081526004018080602001828103825260148152602001807f496e76616c696420616464726573732073656e7400000000000000000000000081525060200191505060405180910390fd5b6000809054906101000a900473ffffffffffffffffffffffffffffffffffffffff1673ffffffffffffffffffffffffffffffffffffffff163373ffffffffffffffffffffffffffffffffffffffff16141561062e576040517f08c379a0000000000000000000000000000000000000000000000000000000008152600401808060200182810382526025815260200180610b706025913960400191505060405180910390fd5b610637336107e7565b1561068d576040517f08c379a0000000000000000000000000000000000000000000000000000000008152600401808060200182810382526026815260200180610b956026913960400191505060405180910390fd5b6040518060400160405280828152602001600160028111156106ab57fe5b60ff16815250600160003373ffffffffffffffffffffffffffffffffffffffff1673ffffffffffffffffffffffffffffffffffffffff168152602001908152602001600020600082015181600001908051906020019061070c929190610a86565b5060208201518160010160006101000a81548160ff021916908360ff1602179055509050503373ffffffffffffffffffffffffffffffffffffffff167fa56e21173460286ea98fc3defc7671b9b8e2ff0c6acea8d6ed30b343724e23fa826040518080602001828103825283818151815260200191508051906020019080838360005b838110156107aa57808201518184015260208101905061078f565b50505050905090810190601f1680156107d75780820380516001836020036101000a031916815260200191505b509250505060405180910390a250565b60006107f1610b06565b600160008473ffffffffffffffffffffffffffffffffffffffff1673ffffffffffffffffffffffffffffffffffffffff168152602001908152602001600020604051806040016040529081600082018054600181600116156101000203166002900480601f0160208091040260200160405190810160405280929190818152602001828054600181600116156101000203166002900480156108d45780601f106108a9576101008083540402835291602001916108d4565b820191906000526020600020905b8154815290600101906020018083116108b757829003601f168201915b505050505081526020016001820160009054906101000a900460ff1660ff1660ff168152505090506001600281111561090957fe5b60ff16816020015160ff16141561092457600191505061092a565b60009150505b919050565b6060600061093b610b06565b600160008573ffffffffffffffffffffffffffffffffffffffff1673ffffffffffffffffffffffffffffffffffffffff168152602001908152602001600020604051806040016040529081600082018054600181600116156101000203166002900480601f016020809104026020016040519081016040528092919081815260200182805460018160011615610100020316600290048015610a1e5780601f106109f357610100808354040283529160200191610a1e565b820191906000526020600020905b815481529060010190602001808311610a0157829003601f168201915b505050505081526020016001820160009054906101000a900460ff1660ff1660ff16815250509050806000015181602001518191509250925050915091565b60008060009054906101000a900473ffffffffffffffffffffffffffffffffffffffff16905090565b828054600181600116156101000203166002900490600052602060002090601f016020900481019282601f10610ac757805160ff1916838001178555610af5565b82800160010185558215610af5579182015b82811115610af4578251825591602001919060010190610ad9565b5b509050610b029190610b23565b5090565b604051806040016040528060608152602001600060ff1681525090565b610b4591905b80821115610b41576000816000905550600101610b29565b5090565b9056fe4f6e6c792041646d696e20616c6c6f77656420746f20706572666f726d206f7065726174696f6e41646d696e2063616e6e6f7420726567697374657220617320726567756c61722075736572526567697374657265642055736572732063616e6e6f7420726567697374657220616761696ea265627a7a7230582048e0a37cf79136c927c0da871b403348607de02283eec6f7e3052a7b4228fe8664736f6c634300050a0032",
  "source": "pragma solidity ^0.5.10;\n\n/**\n    User Manager for registering/de-registering a user from the system\n    @title : UserManagement contract for the DeMuse\n*/\ncontract UserManager{\n\n    address private admin;\n\n    enum UserRole { Unregistered, Registerted, Admin}\n\n    struct UserInfo{\n        string name;\n        uint8 role;\n    }\n\n    mapping (address => UserInfo) users;\n\n    event UserAdded(address indexed user, string userName);\n\n    constructor() public {\n        require(msg.sender != address(0),\"Invalid address\");\n        admin = msg.sender;\n        users[admin] = UserInfo({ name: 'admin', role : uint8(UserRole.Admin)});\n        emit UserAdded(msg.sender,\"admin\");\n    }\n\n    modifier onlyAdmin() {\n        require(msg.sender == admin,\"Only Admin allowed to perform operation\");\n        _;\n    }\n\n    function getUserInfo(address userAddress) public view returns (string memory ,uint8){\n        UserInfo memory user = users[userAddress];\n        return (user.name, user.role);\n    }\n\n    function addUser(string memory name) public payable {\n        require(msg.sender != address(0),\"Invalid address sent\");\n        require(msg.sender != admin,\"Admin cannot register as regular user\");\n        require(!isRegisteredUser(msg.sender),\"Registered Users cannot register again\");\n        users[msg.sender] = UserInfo({ name: name, role : uint8(UserRole.Registerted)});\n        emit UserAdded(msg.sender,name);\n    }\n\n    function addDeMuse(address museumContract) public onlyAdmin payable{\n        users[museumContract] = UserInfo({ name: \"Museum\", role : uint8(UserRole.Registerted)});\n        emit UserAdded(museumContract,\"Museum\");\n    }\n\n    function getAdmin() public view returns(address){\n        return admin;\n    }\n\n    function isRegisteredUser(address userAddress) public view returns (bool){\n        UserInfo memory user = users[userAddress];\n\n        if(user.role == uint8(UserRole.Registerted)){\n            return true;\n        }else{\n            return false;\n        }\n    }\n}",
  "sourcePath": "/home/sdc/deMuse/deMuse/contracts/UserManager.sol",
  "compiler": {
    "name": "solc",
    "version": "0.5.10+commit.5a6ea5b1.Emscripten.clang"
  },
  "schemaVersion": "3.0.11",
  "updatedAt": "2019-08-16T19:33:21.748Z",
  "devdoc": {
    "methods": {},
    "title": ": UserManagement contract for the DeMuse"
  },
  "userdoc": {
    "methods": {},
    "notice": "User Manager for registering/de-registering a user from the system"
  }
}